:0400000080313B28E8
:100008007E14803120007F08B000250012082000EF
:10001800B200250011082000B1003830A000863059
:10002800A1003530A2003208F9003108F8009531F6
:100038004E25803178082000A3007908A4007A08AA
:10004800A5008A31D522200020082200B000200017
:1000580021082200B100200022082200B20020005E
:100068009601970111113008FF007E1009008031B8
:100078003D282200B001B101B2017E102000973165
:100088003D2F2100DB00C030C3004308CC003F08EF
:10009800C4003E08C300BE0A0319BF0A430884000F
:1000A800440885000008C5004508DF005F080319FB
:1000B800B62C25305F06031963285F08AA2CCD01EA
:1000C800CE0168284E157C283F08C4003E08C300AE
:1000D800BE0A0319BF0A43088400440885000008C3
:1000E800DF00003A0319B62C663A031966284B2834
:1000F80000304D05C30007304E05C40043084404D2
:1001080003199F2C0630CF000030D0004C08860021
:100118008701403FDC00413FDD00423FDE00033005
:10012800C3004308CC075C082000B30021005D0829
:100138002000B40021005E082000B5000030B600A1
:100148000030B7000030B8009531D325803103184E
:10015800CC2821005C082000B30021005D082000A5
:10016800B40021005E082000B5008731EB278031FC
:10017800200033082100DC00200034082100DD00C5
:10018800200035082100DE000330CD040030CE0405
:100198002100D501D6015E085D045C0403199A2983
:1001A800DC3086008701403FC300413FC400423F26
:1001B800C500433FC6000F30C636C50CC40CC30C7F
:1001C800890BE028FF304305C70000304405C8000C
:1001D8004708823ED500FF30483DD600FF30D5079E
:1001E800FF30D63D03302000C3000030C40021009A
:1001F80056082000C600210055082000C50095318A
:1002080014258031200044082100D600200043082E
:100218002100D5000A302000BA000030BB002100C0
:1002280056082000BD00210055082000BC0096316A
:100238009826803120003B082100D60020003A088B
:100248002100D500D61F2C29FF30D507FF30D63D19
:100258005503FF3A8431BC2480312000590821001D
:10026800D70020005A082100D80020005B08210090
:10027800D9005C082000C90021005D082000CA00E0
:1002880021005E082000CB00210057082000CC0088
:10029800210058082000CD00210059082000CE0078
:1002A8008B3189238031200049082100D7002000A4
:1002B8004A082100D80020004B082100D90057081F
:1002C8002000B300210058082000B400210059087C
:1002D8002000B5000030B6008030B7003F30B800CD
:1002E8009531D325803103187E29FF302100D507A9
:1002F800FF309929210057082000B3002100580831
:100308002000B400210059082000B5000030B600D4
:100318002030B7004130B8009531D3258031031C17
:100328009A2901302100D5070030D63D2100500818
:10033800803AC30080304302031DA4290D304F02C8
:100348000318C72921004F088E315E26803120000E
:1003580059082100AB0020005A082100AC002000F9
:100368005B082100AD005C08AE005D08AF005E08C8
:10037800B0008C313D24803121002B08DC002C0892
:10038800DD002D08DE0021005608803AC3008030C9
:100398004302031DD1290A3055020318F42921000C
:1003A8005E085D045C040319532A5C08A6005D0816
:1003B800A7005E08A80088316C2080312100290838
:1003C800280427042604031D532A5608803AC3002C
:1003D80080304302031DF22902305502031C532AC0
:1003E800210057082000B300210058082000B4005D
:1003F800210059082000B5007030B6008930B700D8
:100408004030B8009531D325803103180D2AF730D4
:100418000E2AF8302100D507FF30D63D5508843123
:10042800BC248031200059082100D70020005A0838
:100438002100D80020005B082100D9005C082000BA
:10044800B30021005D082000B40021005E082000F0
:10045800B500210057082000B600210058082000E8
:10046800B700210059082000B800873135278031AE
:10047800200036082100D400200035082100D300D0
:10048800200034082100D200200033082100D100C8
:100498000030DC000030DD000030DE00962A21004C
:1004A8005C08A6005D08A7005E08A80088316C20DB
:1004B800803121002908D4002808D3002708D20059
:1004C8002608D10054082000BE002100530820004F
:1004D800BD00210052082000BC0021005108200066
:1004E800BB0095316E25803120003B082100B80003
:1004F80020003C082100B90020003D082100BA0076
:100508005C08BB005D08BC005E08BD009531302565
:10051800803121003808DC003908DD003A08DE00A7
:10052800D501D601DF01DF0A0A305F060319C92A9F
:100538005F08C300C401C335C40DC335C40D003002
:10054800430784009030443D8500003FC500013FCB
:10055800C600023FC700033FC80048085402031DF5
:10056800BF2A47085302031DBF2A46085202031D2B
:10057800BF2A45085102031CC92A0130C300430899
:10058800DF070A305F06031D9C2A03304D05C300B0
:1005980000304E05C400430844040319DF2A2D30F7
:1005A800C3005B08860001308700430881000130E2
:1005B800C3004308DB07FF30C3004308DF075F0AB7
:1005C80003195F2B5F08C300C401C335C40DC335CD
:1005D800C40D0030430784009030443D8500003F3F
:1005E8002000B300013FB400023FB500033FB6004E
:1005F800210054082000BA00210053082000B90047
:10060800210052082000B800210051082000B7003E
:100618009631EA268031200036082100DA002000D1
:1006280035082100D900200034082100D800200016
:1006380033082100D70000302000B6000030B50094
:100648000030B4000A30B30021005A082000BA0074
:10065800210059082000B900210058082000B800DE
:10066800210057082000B70096310F26803120005E
:1006780036082100DA00200035082100D9002000C2
:1006880034082100D800200033082100D70057087B
:10069800303ED42A30302100C3005B088600013088
:1006A8008700430881000130C3004308DB07FF309F
:1006B800D507FF30D63D5608803AC3008030430244
:1006C800031D682B0130550203184E2B21005008DA
:1006D800803AC30080304302031D742B09304F0257
:1006E800031C792B083021007B2B21004F08C30005
:1006F8004308DF005F08C300C401C31BC4034308E9
:10070800CF024408D03B5F080319962B2E30C30054
:100718005B08860001308700430881000130C30070
:100728004308DB075F088431BC2480312000590866
:100738002100C90020005A082100CA0020005B08D7
:100748002100CB0049082000CC0021004A082000E5
:10075800CD0021004B082000CE0021005C082000BD
:10076800C90021005D082000CA0021005E082000A1
:10077800CB008B3189238031200049082100A60055
:1007880020004A082100A70020004B082100A800EB
:1007980088316C20803121002908D4002808D30032
:1007A8002708D2002608D100FF30C3004308DF071E
:1007B8005F0A03199A2C5F08C300C401C335C40D2E
:1007C800C335C40D0030430784009030443D850094
:1007D800003F2000B300013FB400023FB500033FD3
:1007E800B600210054082000BA0021005308200058
:1007F800B900210052082000B8002100510820004B
:10080800B7009631EA268031200036082100DA0048
:10081800200035082100D900200034082100D80024
:10082800200033082100D70000302000B600003037
:10083800B5000030B4000A30B30021005A08200087
:10084800BA00210059082000B900210058082000EA
:10085800B800210057082000B70096310F268031D4
:10086800200036082100DA00200035082100D900D0
:10087800200034082100D800200033082100D700C8
:100888005708303EC3005B088600013087004308E4
:1008980081000130C3004308DB075F08C300C401BF
:1008A800C335C40DC335C40D0030430784009030F0
:1008B800443D8500003F2000B300013FB400023FE3
:1008C800B500033FB600210054082000BA002100FB
:1008D80053082000B900210052082000B800210068
:1008E80051082000B70096310F26803120003608C5
:1008F8002100D400200035082100D300200034084E
:100908002100D200200033082100D72B3030C3004B
:100918005B08860001308700430881000130C3006E
:100928004308DB07FF30CF07FF30D03D4F085004A6
:1009380003194B288A2C03304D05C30000304E059F
:10094800C4004308440403194B282D30C3005B0836
:10095800860001308700430881000130C300430846
:10096800DB074B285B0886000130870081010800FF
:100978002100A500A51FFB2DA509A50A2508803A79
:10098800123E031C772D0A302000BA000030BB004D
:10099800210025082000B500B601B51BB603643058
:1009A800B3000030B4009631522684312000340858
:1009B800BD003308BC0096319826843120003A08DF
:1009C800093EC30000303B3DC4000330C500003081
:1009D800C600953114258431200044088500430859
:1009E8008400283084079030853D003FC900013FCE
:1009F800CA00023FCB006430BA000030BB002100BF
:100A080025082000BC00BD01BC1BBD0396319826FB
:100A1800843120003A08123EC30000303B3DC40038
:100A28000330C5000030C6009531142584312000FC
:100A38004408850043088400283084079030853DA9
:100A4800003FCC00013FCD00023FCE008B3189230F
:100A58008431200049082100A20020004A08210012
:100A6800A30020004B082100A40025082000B500A1
:100A7800B601B51BB6030A30B3000030B400963196
:100A88005226843120003408C4003308C3000330E0
:100A9800C5000030C6009531142584312000440873
:100AA800850043088400283084079030853D003F46
:100AB800C900013FCA00023FCB00210022082000E4
:100AC800CC00210023082000CD00210024082000AC
:100AD800CE008B31892320004908D9004A08DA0062
:100AE8004B08DB00080021002508803A753E031CEE
:100AF800DA2D25082000B500B601B51BB6030A306B
:100B0800B3000030B40096315226843120003408F6
:100B1800C4003308C3000330C5000030C600953157
:100B280014258431200044088500430884002830B7
:100B380084079030853D003FC900013FCA00023F4D
:100B4800CB000A30BA000030BB0021002508200085
:100B5800BC00BD01BC1BBD03963198268431200022
:100B68003A08093EC30000303B3DC4000330C500CD
:100B78000030C600953114258431200044088500D2
:100B880043088400283084079030853D003FCC001E
:100B9800013FCD00023FCE008B3189232000490858
:100BA800D9004A08DA004B08DB00080021002508B4
:100BB800A000A10120082000C30021002108200076
:100BC800C4000330C5000030C6009531142520004C
:100BD8004408850043088400283084079030853D08
:100BE800003FD900013FDA00023FDB000800210086
:100BF8002508803A123E031CB12E0A302000BA00A4
:100C08000030BB00210025082000B500B601B51B47
:100C1800B6036430B3000030B400963152268431F4
:100C280020003408BD003308BC0096319826843172
:100C380020003A08093EC30000303B3DC4000330A1
:100C4800C5000030C60095311425843120004408C1
:100C58008500430884004F3084079030853D003F6D
:100C6800C900013FCA00023FCB006430BA0000301F
:100C7800BB00210025082000BC00BD01BC1BBD0332
:100C880096319826843120003A08123EC30000307D
:100C98003B3DC4000330C5000030C6009531142523
:100CA8008431200044088500430884004F308407BD
:100CB8009030853D003FCC00013FCD00023FCE0083
:100CC8008B3189238431200049082100A2002000AB
:100CD8004A082100A30020004B082100A400250891
:100CE8002000B500B601B51BB6030A30B3000030CA
:100CF800B40096315226843120003408C4003308E9
:100D0800C3000330C5000030C60095311425843176
:100D1800200044088500430884004F308407903041
:100D2800853D003FC900013FCA00023FCB002100BA
:100D380022082000CC00210023082000CD0021003B
:100D480024082000CE008B31892320004908D900CF
:100D58004A08DA004B08DB00080021002508803A21
:100D6800753E031C142F25082000B500B601B51BDD
:100D7800B6030A30B3000030B400963152268431ED
:100D880020003408C4003308C3000330C500003015
:100D9800C600953114258431200044088500430895
:100DA80084004F3084079030853D003FC900013FE3
:100DB800CA00023FCB000A30BA000030BB00210055
:100DC80025082000BC00BD01BC1BBD039631982638
:100DD800843120003A08093EC30000303B3DC4007E
:100DE8000330C5000030C600953114258431200039
:100DF80044088500430884004F3084079030853DBF
:100E0800003FCC00013FCD00023FCE008B3189234B
:100E180020004908D9004A08DA004B08DB0008001E
:100E280021002508A000A10120082000C3002100FE
:100E380021082000C4000330C5000030C6009531E9
:100E48001425200044088500430884004F30840797
:100E58009030853D003FD900013FDA00023FDB00BA
:100E6800080020003308B9003408BA003508BB0070
:100E780003103A0D3B0DBC003C08C2004208031D9C
:100E88004E2F0030B6000030B5000030B4000030FE
:100E9800B30008003608B9003708BA003808BB00A4
:100EA80003103A0D3B0DBC003C08C1004108031D6E
:100EB800662F0030B6000030B5000030B4000030B6
:100EC800B3000800B417FF30B305FF30B405003095
:100ED800B505B717FF30B605FF30B7050030B805C0
:100EE8000030C0000030BF000030BE000030BD0040
:100EF8007F30C20298304107B9003908C202183061
:100F0800B9003908C1000130BD35BE0DBF0DC00D97
:100F1800890B882F38083502031D982F37083402AB
:100F2800031D982F36083302031CA12F3608B3027D
:100F38003708B43B3808B53B3D140130B335B40D20
:100F4800B50D890BA22F0130C102031D872FC21FC7
:100F5800C92F4208803A973E0318BB2F0030B600CD
:100F68000030B5000030B4000030B3000800013094
:100F7800C036BF0CBE0CBD0C890BBC2F0130B900AC
:100F88003908C2070319E22FBB2F18304202031C8D
:100F9800DF2F0030B6000030B5000030B40000305C
:100FA800B30008000130BD35BE0DBF0DC00D890B63
:100FB800D72F0130C2024208031DD62F4008B600C1
:100FC8003F08B5003E08B4003D08B3000800200003
:100FD800350834043304031908008030B5060800C6
:10100E002000360803191028350834043304031D54
:10101E0021280030B3000030B4000030B5000800C5
:10102E000130B8003808B6070130B536B40CB30C31
:10103E00890B1C28FE30350503193A281728013074
:10104E00B8003808B6070130B30700300318013076
:10105E00B407003003180130B5070130B536B40CB3
:10106E00B30C890B3528FF30350503194728262880
:10107E000130B6020130B335B40DB50D890B4228DF
:10108E00B41B4D280230360203183F283618552857
:10109E00FF30B3057F30B405FF30B5050310B60C35
:1010AE003608B800B901BA011030B835B90DBA0D0D
:1010BE00890B5C283808B3043908B4043A08B5041F
:1010CE00370803190800B517080021002608AA00E2
:1010DE002708AB002808AC0003102B0D2C0DAD001B
:1010EE002D08B3003308031D85280030A9000030F9
:1010FE00A8000030A7000030A60008002608AA00AD
:10110E002708AB002808AC001730AC36AB0CAA0C85
:10111E00890B8C282A08AD002D08AE00A717FF30CA
:10112E00A605FF30A7050030A8052608AF00270842
:10113E00B0002808B100B2018E30B302B31FC3282D
:10114E003308803A8F3E0318B5280030A9000030CE
:10115E00A8000030A7000030A60008000130B2360B
:10116E00B10CB00CAF0C890BB6280130AA002A08BE
:10117E00B3070319DC28B52818303302031CD9280D
:10118E000030A9000030A8000030A7000030A600F3
:10119E0008000130AF35B00DB10DB20D890BD1285D
:1011AE000130B3023308031DD0282E080319EA2894
:1011BE00AF09B009B109B209AF0A0319B00A031990
:1011CE00B10A0319B20A3208A9003108A800300882
:1011DE00A7002F08A60008002000B5000D128D12E2
:1011EE003508B3000730B336890BFA2801303305C2
:1011FE00B4000D083406FE3934068D003508B300F0
:10120E000630B336890B082933080139B400B40D02
:10121E000D083406FD3934068D003508B30005304F
:10122E00B336890B172933080139B400B40DB40D48
:10123E000D083406FB3934068D003508B300043032
:10124E00B336890B272933080139B400B40DB40D18
:10125E00B40D0D083406F73934068D000330B30093
:10126E00B30B372920000D160D30B300B30B3D29FB
:10127E0020000D123508B3000330B336890B442914
:10128E0001303305B4000D083406FE3934068D00E6
:10129E003508B3000230B336890B522933080139B1
:1012AE00B400B40D0D083406FD3934068D00353604
:1012BE000139B300B30DB30D0D083306FB393306F8
:1012CE008D0035080139B300B30DB30DB30D0D0804
:1012DE003306F73933068D000330B300B30B75298F
:1012EE0020000D160D30B300B30B7B2920000D121C
:1012FE003A30B4002330B300B30B8329B40B8329E7
:10130E0008002000B5000D128D163508B300073009
:10131E00B336890B8F2901303305B4000D0834061E
:10132E00FE3934068D003508B3000630B336890B0E
:10133E009D2933080139B400B40D0D083406FD396A
:10134E0034068D003508B3000530B336890BAC2951
:10135E0033080139B400B40DB40D0D083406FB3951
:10136E0034068D003508B3000430B336890BBC2922
:10137E0033080139B400B40DB40DB40D0D083406A4
:10138E00F73934068D000330B300B30BCC2920009F
:10139E000D160D30B300B30BD22920000D123508F7
:1013AE00B3000330B336890BD92901303305B400AD
:1013BE000D083406FE3934068D003508B3000230B0
:1013CE00B336890BE72933080139B400B40D0D0883
:1013DE003406FD3934068D0035360139B300B30DB0
:1013EE00B30D0D083306FB3933068D003508013970
:1013FE00B300B30DB30DB30D0D083306F739330635
:10140E008D000330B300B30B0A2A20000D160D30E9
:10141E00B300B30B102A20000D120D30B300B30B26
:10142E00162A3A302000B4002330B300B30B1D2A25
:10143E00B40B1D2A080021000D108D100D118D11F9
:10144E000D128D1220000D108D100D118D110D121B
:10145E008D123A30B7002330B600B60B342AB70BD4
:10146E00342A3A302000B7002330B600B60B3D2A9E
:10147E00B70B3D2A3A302000B7002330B600B60B2A
:10148E00462AB70B462A3A302000B7002330B60062
:10149E00B60B4F2AB70B4F2A3A302000B700233035
:1014AE00B600B60B582AB70B582A3A302000B700B0
:1014BE002330B600B60B612AB70B612A2000B801A3
:1014CE00B80A043038020318942A0D108D100D1529
:1014DE008D150D128D120D108D100D158D150D16FD
:1014EE008D120D30B600B60B7A2A20000D108D101D
:1014FE000D158D150D128D123A30B7002330B60032
:10150E00B60B872AB70B872A01302000B6003608A3
:10151E00B80704303802031C6C2A0D108D100D15FF
:10152E008D110D128D120D108D100D158D110D16B4
:10153E008D120D30B600B60BA22A20000D108D10A4
:10154E000D158D110D128D123A30B7002330B600E5
:10155E00B60BAF2AB70BAF2A28302000B6003608DC
:10156E00B80038088831F3208A3110302000B600D8
:10157E003608B80038088831F3208A312000B801C7
:10158E00B80A38088831F3208A310F302000B600AF
:10159E003608B80038088831F320080020002008EB
:1015AE00A6002108A7002208A8000310270D280D69
:1015BE00A9002908AA002A08031DEC2A0030A00061
:1015CE000030A1000030A20008002308A600240865
:1015DE00A7002508A8000310270D280DA90029082B
:1015EE00AF002F08031D022B0030A0000030A10019
:1015FE000030A20008002F087B3EA6002608AA078E
:10160E002008A6002108A7002208A8001030A8363E
:10161E00A70CA60C890B0E2B2608A9002908AF00D3
:10162E002308A6002408A7002508A8001030A83615
:10163E00A70CA60C890B1E2B2608A9002908AF069D
:10164E008030A6002608AF05A117A417FF30A3050A
:10165E00FF30A4050030A5050030AB000030AC0013
:10166E000030AD000730A6002608AE00201C452B2A
:10167E002308AB072408AC3D2508AD3D0130A2364A
:10168E00A10CA00C890B462B0130A335A40DA50D82
:10169E00890B4C2B0130AE02031D3D2B0930A600E9
:1016AE002608AE00201C612B2308AB072408AC3D96
:1016BE002508AD3D0130A236A10CA00C890B622B82
:1016CE000130AD36AC0CAB0C890B682B0130AE0281
:1016DE00031D592B2B08F0002C08F1002D08F200E9
:1016EE002A08A6002608F3002F08A7002708F400F2
:1016FE0097319C2770082000A0007108A100720885
:10170E00A200080020004908CF004A08D0004B086C
:10171E00D1000310500D510DD2005208D3005308C2
:10172E00031DA02B0030C9000030CA000030CB00D2
:10173E0008004C08CF004D08D0004E08D100031011
:10174E00500D510DD2005208D8005808031DB62B6B
:10175E000030C9000030CA000030CB000800580825
:10176E007B3ECF004F08D3074908CF004A08D00070
:10177E004B08D1001030D136D00CCF0C890BC22BB8
:10178E004F08D2005208D8004C08CF004D08D000A8
:10179E004E08D1001030D136D00CCF0C890BD22B85
:1017AE004F08D2005208D8068030CF004F08D80517
:1017BE00CA17CD17FF30CC05FF30CD050030CE0552
:1017CE000030D4000030D5000030D6000730CF00F6
:1017DE004F08D700491CF92B4C08D4074D08D53DAE
:1017EE004E08D63D0130CB36CA0CC90C890BFA2BEC
:1017FE000130CC35CD0DCE0D890B002C0130D7022A
:10180E00031DF12B0930CF004F08D700491C152CB2
:10181E004C08D4074D08D53D4E08D63D0130CB3689
:10182E00CA0CC90C890B162C0130D636D50CD40C2B
:10183E00890B1C2C0130D702031D0D2C5408B3004C
:10184E005508B4005608B5005308CF004F08B6002F
:10185E005808D0005008B700883107202000330800
:10186E00C9003408CA003508CB00080021002B0837
:10187E00B1002C08B2002D08B3000310320D330D49
:10188E00B4003408B7002E08B1002F08B20030089B
:10189E00B3000310320D330DB4003408B600370810
:1018AE000319652C3608370203186C2C3703FF3AE0
:1018BE003607B10019303102031C6C2C2E08AB0018
:1018CE002F08AC003008AD000800360803190800D8
:1018DE003708360203187B2C3603FF3A3707B10060
:1018EE0019303102031808000630B1003108B50076
:1018FE00AD1BB517B01B3517AC17FF30AB05FF305E
:10190E00AC050030AD05AF17FF30AE05FF30AF05AB
:10191E000030B005360837020318B72C0130AE354B
:10192E00AF0DB00D890B962C0130B6023608370676
:10193E000319B22C0130B502350807390319B22C40
:10194E00952C0130AD36AC0CAB0C890BA92C0130AB
:10195E00B1003108B707370836060319DC2CA82C5E
:10196E00370836020318DC2C0130AB35AC0DAD0D4B
:10197E00890BBC2C0130B702360837060319D82C58
:10198E000130B502350807390319D82CBB2C0130AC
:10199E00B036AF0CAE0C890BCF2C0130B100310834
:1019AE00B60737083606031DCE2CB51FEE2CFF30BA
:1019BE00AB06FF30AC06FF30AD060130AB07003092
:1019CE0003180130AC07003003180130AD07351F86
:1019DE00002DFF30AE06FF30AF06FF30B0060130EF
:1019EE00AE07003003180130AF0700300318013086
:1019FE00B007B5012B08AE072C08AF3D2D08B03D42
:101A0E00B01F1B2DFF30AE06FF30AF06FF30B00605
:101A1E000130AE07003003180130AF070030031855
:101A2E000130B007B501B50A2E082000B300210021
:101A3E002F082000B400210030082000B50021003E
:101A4E003708B10031082000B60021003508B20079
:101A5E0032082000B700883107202000330821000B
:101A6E00AB00200034082100AC0020003508210016
:101A7E00AD000800333086008701403F2000B900DA
:101A8E00413FBA00423FBB00433FBC0003103B0D39
:101A9E003C0DBD003D08C6004608031D5F2D0030FD
:101AAE00B6000030B5000030B4000030B3000800BE
:101ABE00363086008701403FB900413FBA00423FB1
:101ACE00BB00433FBC0003103B0D3C0DBD003D0869
:101ADE00C5004508031D7C2D0030B6000030B50052
:101AEE000030B4000030B3000800333086008701A8
:101AFE000030810441310030810441318030810455
:101B0E00413100308104333086008701FF3081057A
:101B1E004131FF3081054131FF30810541310030C7
:101B2E008105363086008701003081044131003056
:101B3E0081044131803081044131003081043630DE
:101B4E0086008701FF3081054131FF30810541312B
:101B5E00FF3081054131003081050030C400003076
:101B6E00C3000030C2000030C1007F30C602A0307A
:101B7E004507B9003908C6022030B9003908C5003A
:101B8E000130C135C20DC30DC40D890BC82D3630C1
:101B9E0086008701403FB900413FBA00423FBB007B
:101BAE00433FBC00333086008701403FBD00413FBC
:101BBE00BE00423FBF00433FC0003C084002031D31
:101BCE00F22D3B083F02031DF22D3A083E02031D83
:101BDE00F22D39083D02031C0F2E36308600870188
:101BEE00403FB900413FBA00423FBB00433FBC00FB
:101BFE003330860087013908810241313A08813B32
:101C0E0041313B08813B41313C08813B7D314114E0
:101C1E0033308600870181354131810D4131810D8F
:101C2E004131810D7D310130C502031DC72DC61F07
:101C3E003C2E4608803A9F3E03182E2E0030B600EA
:101C4E000030B5000030B4000030B30008000130A1
:101C5E00C436C30CC20CC10C890B2F2E0130B90037
:101C6E003908C6070319552E2E2E20304602031CA6
:101C7E00522E0030B6000030B5000030B4000030F7
:101C8E00B30008000130C135C20DC30DC40D890B60
:101C9E004A2E0130C6024608031D492E4408B600DE
:101CAE004308B5004208B4004108B3000800210003
:101CBE00AA006E302A02031C422F0A302000BA00FE
:101CCE000030BB0021002A08A000A101200820003E
:101CDE00B500210021082000B6006430B3000030AA
:101CEE00B400963152268E3120003408BD003308E0
:101CFE00BC00963198268E3120003A08093EC3006A
:101D0E0000303B3DC4000330C5000030C6009531A5
:101D1E0014258E31200044088500430884002830A5
:101D2E0084079030853D003FC900013FCA00023F45
:101D3E00CB006430BA000030BB0021002A08A2009C
:101D4E00A30122082000BC00210023082000BD00B2
:101D5E00963198268E3120003A08123EC30000308C
:101D6E003B3DC4000330C5000030C600953114253C
:101D7E008E312000440885004308840028308407F3
:101D8E009030853D003FCC00013FCD00023FCE009C
:101D9E008B3189238E31200049082100A7002000B5
:101DAE004A082100A80020004B082100A9002A089B
:101DBE00A000A10120082000B5002100210820006C
:101DCE00B6000A30B3000030B400963152268E3180
:101DDE0020003408C4003308C3000330C5000030AF
:101DEE00C600953114258E31200044088500430825
:101DFE008400283084079030853D003FC900013FA4
:101E0E00CA00023FCB00210027082000CC00210091
:101E1E0028082000CD00210029082000CE008B319B
:101E2E0089238E31200049082100A40020004A0891
:101E3E002100A50020004B082100A6000030200044
:101E4E00C9000030CA003F30CB002100240820001A
:101E5E00CC00210025082000CD00210026082000FE
:101E6E00CE008B31892320004908D9004A08DA00B8
:101E7E004B08DB0008000B3021002A02031CCE2F7A
:101E8E002A08A000A10120082000B5002100210889
:101E9E002000B6000A30B3000030B400963152264E
:101EAE008E3120003408C4003308C3000330C5004F
:101EBE000030C600953114258E312000440885006F
:101ECE0043088400283084079030853D003FC900C8
:101EDE00013FCA00023FCB000A30BA000030BB00FF
:101EEE0021002A08A200A30122082000BC00210024
:101EFE0023082000BD00963198268E3120003A0826
:101F0E00093EC30000303B3DC4000330C500003025
:101F1E00C600953114258E312000440885004308F3
:101F2E008400283084079030853D003FCC00013F6F
:101F3E00CD00023FCE008B3189238E31200049081F
:101F4E002100A70020004A082100A80020004B080D
:101F5E002100A90000302000C9000030CA003F3027
:101F6E00CB00210027082000CC00210028082000EB
:101F7E00CD00210029082000CE008B3189232000BE
:101F8E004908D9004A08DA004B08DB000800003087
:101F9E002000C9000030CA003F30CB0021002A08C3
:101FAE00A000A10120082000C3002100210820006C
:101FBE00C4000330C5000030C600953114258E31A3
:101FCE0020004408850043088400283084079030A0
:101FDE00853D003FCC00013FCD00023FCE008B314E
:101FEE00892320004908D9004A08DA004B08DB0093
:101FFE00080001340034003400340A340034003454
:10200E0000346434003400340034E83403340034D3
:10201E0000341034273400340034A03486340134B4
:10202E000034403442340F340034803496349834C3
:10203E0000340034E134F53405340034CA349A34B3
:10204E003B34003480343F34CD34CC343D34D7343B
:10205E0023343C34123483343A34B734D1343834E4
:10206E00C63427343734383486343534C034D63415
:10207E003334CC342B343234703489343034E73446
:10208E00DB342E34E5343C341E344234A2340D3469
:10209E00003480343F340034203441340034C834AA
:1020AE00423400347A34443440341C344634503490
:1020BE00C3344734243474344934973418344B348D
:1020CE00BC34BE344C346B346E344E34033415345D
:1020DE0050347934AD346034F3344934713454347B
:1020EE00693465346D3470346F342034253466347D
:0220FE000034AC
:102A28002000C701C801431C1D2D4508C7074608DB
:102A3800C83D0130C535C60D890B1E2D0130C43681
:102A4800C30C890B232D43084404031D172D480884
:102A5800C4004708C300080021003A0839043804B4
:102A68000319382D8030BA063B08AB003C08AC008F
:102A78003D08AD003808AE003908AF003A08B0008C
:102A88008C313D2421002B08B8002C08B9002D08F2
:102A9800BA000800FD01F91F582DF809F909F80ACC
:102AA8000319F90AFD01FD0A7808F0007908F10018
:102AB800F2018E30FB007B08F3007D08FC007C08E7
:102AC800F40097319C277008F8007108F900720823
:102AD800FA0008008E302000BF003F08C000FF3019
:102AE8003E050319832D0130BE36BD0CBC0CBB0C52
:102AF800890B782D0130BF003F08C007732D3B08B4
:102B0800B3003C08B4003D08B5004008BF003F08CA
:102B1800B600B7018831072020003308BB0034080D
:102B2800BC003508BD0008002000B900AA2D3608F1
:102B3800803EA62D3608C03EA62D3608943EA62D0A
:102B48003608D43EB8003808BA00B82D3908013A1A
:102B580003199B2D033A03199E2D013A0319A12D40
:102B6800073A0319A42DB82D3A088831F320953176
:102B78002000370886000130870001080319080083
:102B88002000370886000130870001088931882134
:102B9800953101302000B8003808B707BC2D200057
:102BA800B51FEA2D3309B9003409BA003509BB004D
:102BB800B90A0319BA0A0319BB0A00303907B30066
:102BC80000303A3DB40080303B3DB500B81F002EC0
:102BD8003609B9003709BA003809BB00B90A031920
:102BE800BA0A0319BB0A00303907B60000303A3D6B
:102BF800B70080303B3DB8008030B5068030B8065D
:102C080038083502031D080037083402031D080080
:102C1800360833020800200036083504340433042B
:102C28000319492EBC01BC0AB61B262E0130B33548
:102C3800B40DB50DB60D890B1B2E0130BB003B083A
:102C4800BC07182E36083A02031D342E35083902FF
:102C5800031D342E34083802031D342E330837027E
:102C6800031C3E2E3308B7023408B83B3508B93B7D
:102C78003608BA3B0130B636B50CB40CB30C890B28
:102C88003F2E0130BC02031D262E3A08B600390833
:102C9800B5003808B4003708B30008002000B901AF
:102CA800B61F5D2EB509B609B50A0319B60AB901EA
:102CB800B90AB41F642EB309B409B30A0319B40AD4
:102CC8003308340403198B2EB801B80AB41B762EC6
:102CD8000130B335B40D890B6D2E0130B7003708BC
:102CE800B8076A2E34083602031D7C2E33083502D5
:102CF800031C822E3308B5023408B63B0130B436C3
:102D0800B30C890B832E0130B802031D762E3908C7
:102D18000319932EB509B609B50A0319B60A360878
:102D2800B4003508B30008002000C001BB1FA32E63
:102D3800BA09BB09BA0A0319BB0AC001C00ABD1FF8
:102D4800AE2EBC09BD09BC0A0319BD0A0130BE007C
:102D58003E08C006C101C2013A083B040319DD2E32
:102D6800BF01BF0ABB1BC22E0130BA35BB0D890B90
:102D7800B92E0130BE003E08BF07B62E0130C1355E
:102D8800C20D890BC32E3B083D02031DCD2E3A0808
:102D98003C02031CD42E3A08BC023B08BD3B41143C
:102DA8000130BB36BA0C890BD52E0130BF02031D8A
:102DB800C22E40080319E52EC109C209C10A031928
:102DC800C20A4208BB004108BA00080000302000CF
:102DD800BF000030BE000030BD000030BC00360827
:102DE8003504340433040319342FC001C00AB61B58
:102DF800092F0130B335B40DB50DB60D890BFE2E74
:102E08000130BB003B08C007FB2E0130BC35BD0DAF
:102E1800BE0DBF0D890B0A2F36083A02031D1E2F5F
:102E280035083902031D1E2F34083802031D1E2FD2
:102E380033083702031C292F3308B7023408B83B7C
:102E48003508B93B3608BA3B3C140130B636B50CE8
:102E5800B40CB30C890B2A2F0130C002031D092FB3
:102E68003F08B6003E08B5003D08B4003C08B30072
:102E7800080021001908873970389900FC30990535
:102E88008C01FF308E0020008C0123008C018D0105
:102E98008B170B1720001111210011153F3020004E
:102EA80098053030980418111814960197012500D8
:102EB8001308F039043893008A31222297310130FF
:102EC8008831F32097310C308831F32097317630F0
:102ED8002100BE009030BF00220030082100C00051
:102EE800220031082100C100220032082100C2005E
:102EF80020308031452097312000B601B60A2030B5
:102F08002100E00060082000B700013095319825C5
:102F1800973115302100E2004B30E100D130E0005C
:102F2800E00B942FE10B942FE20B942F00006B2FF2
:102F380073080319A42F720871047004031DB52FB8
:102F48000030F0000030F1000030F20008000130DD
:102F5800F5007508F3070130F236F10CF00C890B17
:102F6800B02FFE3072050319CE2FAB2F0130F500BC
:102F78007508F3070130F007003003180130F10736
:102F8800003003180130F2070130F236F10CF00C72
:102F9800890BC92FFF3072050319DB2FBA2F0130B7
:102FA800F3020130F035F10DF20D890BD62FF11B2C
:102FB800E12F023073020318D32F7318E92FFF3063
:102FC800F0057F30F105FF30F2050310F30C7308AC
:102FD800F500F601F7011030F535F60DF70D890B00
:102FE800F02F7508F0047608F1047708F2047408E5
:082FF80003190800F21708009C
:020000040001F9
:04000E00C4FFFFFF2D
:00000001FF
