:08000000803102288731FC2F3A
:1005AE00F100F0013A3071020318E32A3030710283
:1005BE00031CE32AF001F00A700C0800F401F501A7
:1005CE00701CED2A7208F4077308F53D0130F23500
:1005DE00F30D890BEE2A0130F136F00C890BF32A5C
:1005EE0071087004031DE72A7508F101F1077408FC
:1005FE00F001F0070800790878040319292BFD0192
:10060E00FD0AF91B142B0130F835F90D890B0B2B54
:10061E000130FC007C08FD07082B79087B02031DC6
:10062E001A2B78087A02031C202B7808FA02790814
:10063E00FB3B0130F936F80C890B212B0130FD0202
:10064E00031D142B7B08F901F9077A08F801F80746
:10065E000800F600412B7308803E3D2B7308C03E08
:10066E003D2B7308943E3D2B7308D43EF500750860
:10067E00F7004F2B7608013A0319322B033A031970
:10068E00352B013A0319382B073A03193B2B4F2B05
:10069E0077088331D323833174088600870181085C
:1006AE000319080074088600870101088431682444
:1006BE0083310130F5007508F407532BF501F6016F
:1006CE00710870040319942BF701F70AF11B792BAB
:1006DE000130F035F10D890B702B0130F4007408E8
:1006EE00F7076D2B0130F535F60D890B7A2B710856
:1006FE007302031D842B70087202031C8B2B70086F
:10070E00F2027108F33B75140130F136F00C890BCF
:10071E008C2B0130F702031D792B7608F101F107BE
:10072E007508F001F0070800F700AC2B7308803E47
:10073E00A82B7308C03EA82B7308943EA82B7308F1
:10074E00D43EF6007608F800BA2B7708013A031962
:10075E009D2B033A0319A02B013A0319A32B073A39
:10076E000319A62BBA2B78088331D323833174084F
:10077E008400750885000008003803190800740805
:10078E0084007508850000088431682483310130A7
:10079E00F4070030F53DBE2BF20020000C128C1237
:1007AE007208F0000730F036890BDA2B0130700535
:1007BE00F1000C087106FE3971068C007208F0000B
:1007CE000630F036890BE82B70080139F100F10D77
:1007DE000C087106FD3971068C007208F0000530A8
:1007EE00F036890BF72B70080139F100F10DF10D80
:1007FE000C087106FB3971068C007208F00004308B
:10080E00F036890B072C70080139F100F10DF10D4E
:10081E00F10D0C087106F73971068C000330F000EB
:10082E00F00B172C20000C160D30F000F00B1D2CC9
:10083E0020000C127208F0000330F036890B242CC5
:10084E0001307005F1000C087106FE3971068C003E
:10085E007208F0000230F036890B322C7008013924
:10086E00F100F10D0C087106FD3971068C0072361F
:10087E000139F000F00DF00D0C087006FB39700612
:10088E008C0072080139F000F00DF00DF00D0C081F
:10089E007006F73970068C000330F000F00B552C03
:1008AE0020000C160D30F000F00B5B2C20000C120B
:1008BE003A30F1002330F000F00B632CF10B632C77
:1008CE000800F20020000C128C167208F00007309F
:1008DE00F036890B6F2C01307005F1000C08710693
:1008EE00FE3971068C007208F0000630F036890B66
:1008FE007D2C70080139F100F10D0C087106FD39DF
:10090E0071068C007208F0000530F036890B8C2CC5
:10091E0070080139F100F10DF10D0C087106FB396B
:10092E0071068C007208F0000430F036890B9C2C96
:10093E0070080139F100F10DF10DF10D0C08710681
:10094E00F73971068C000330F000F00BAC2C200050
:10095E000C160D30F000F00BB22C20000C127208A9
:10096E00F0000330F036890BB92C01307005F10020
:10097E000C087106FE3971068C007208F000023008
:10098E00F036890BC72C70080139F100F10D0C08F7
:10099E007106FD3971068C0072360139F000F00DCA
:1009AE00F00D0C087006FB3970068C0072080139C8
:1009BE00F000F00DF00DF00D0C087006F739700612
:1009CE008C000330F000F00BEA2C20000C160D30DA
:1009DE00F000F00BF02C20000C120D30F000F00B9C
:1009EE00F62C3A30F1002330F000F00BFC2CF10B1A
:1009FE00FC2C080021000C108C100C118C110C1208
:100A0E008C1220000C108C100C118C110C128C12EC
:100A1E003A30F4002330F300F30B132DF40B132DA7
:100A2E003A30F4002330F300F30B1B2DF40B1B2D87
:100A3E003A30F4002330F300F30B232DF40B232D67
:100A4E003A30F4002330F300F30B2B2DF40B2B2D47
:100A5E003A30F4002330F300F30B332DF40B332D27
:100A6E003A30F4002330F300F30B3B2DF40B3B2D07
:100A7E00F501F50A0430750203186D2D20000C10D7
:100A8E008C100C158C150C128C120C108C100C1565
:100A9E008C150C168C120D30F300F30B542D200018
:100AAE000C108C100C158C150C128C123A30F400A4
:100ABE002330F300F30B612DF40B612D0130F300A5
:100ACE007308F50704307502031C452D20000C1029
:100ADE008C100C158C110C128C120C108C100C1519
:100AEE008C110C168C120D30F300F30B7C2D2000A4
:100AFE000C108C100C158C110C128C123A30F40058
:100B0E002330F300F30B892DF40B892D2830F300DD
:100B1E007308F50075088331D32385311030F30047
:100B2E007308F50075088331D3238531F501F50A75
:100B3E0075088331D32385310F30F3007308F50028
:100B4E0075088331D32308002100991719088739B6
:100B5E0070389900FC30990523008C018D019001AD
:100B6E008F0185310125853101308331D3238531C4
:100B7E000C308331D323853105302000B5000F3082
:100B8E00B400F430B300B30BCA2DB40BCA2DB50BA1
:100B9E00CA2D0A302000B3003308CA00CA08031950
:100BAE00052E1630A0008830A1004A08B300B4010B
:100BBE003308A2003408A300363086316F26853103
:100BCE00F301F30A36302000B3003308F40001308D
:100BDE0083313023853105302000B5000F30B4004D
:100BEE00F430B300B30BF92DB40BF92DB50BF92D71
:100BFE0001302000CA02CA08031DD82DF301F30AE2
:100C0E000A30F4008830F500023083319B238531A1
:100C1E0019302000B5005A30B400C830B300B30B01
:100C2E00162EB40B162EB50B162E00320F30833146
:100C3E00D323853129302000B5009630B400A6307C
:100C4E00B300B30B282EB40B282EB50B282E0E3066
:100C5E008331D323853129302000B5009630B4007E
:100C6E00A630B300B30B392EB40B392EB50B392E7B
:100C7E000C308331D323853129302000B5009630D6
:100C8E00B400A630B300B30B4A2EB40B4A2EB50BEC
:100C9E004A2E01308331D323853104302000B30036
:100CAE003308F3002230F4008830F5000130833130
:100CBE009B23853104302000B3003308F3002A3023
:100CCE00F4008830F500023083319B2385316E2E7F
:100CDE002000B1002230A4002408A8002000210822
:100CEE00A5002008A400A00A0319A10A2408840064
:100CFE00250885000008A6002608B200B2080319D0
:100D0E00F62F3208253A0319982E3208A40031081E
:100D1E0086008701240881000130A4002408B10751
:100D2E00752EAF01B001AE01A12E2E150130A00718
:100D3E000030A13D20088400210885000008303ACB
:100D4E0003199C2EAA2E2008840021088500000875
:100D5E008231D7228631031CE92E2000AF01B0016B
:100D6E000A30F0000030F10020003008F301F307E4
:100D7E002F08F201F2078231E52286317108200038
:100D8E00B001B0077008AF01AF072008840021083A
:100D9E0085000008D03EA400FF3003180030A500E7
:100DAE002408AF072508B03D0130A0070030A13D53
:100DBE00200884002108850000088231D722863160
:100DCE000318B72E20002108A5002008A400A00AB1
:100DDE000319A10A24088400250885000008B20022
:100DEE00003A0319F62F643A0319012F0D3A03192D
:100DFE00012F752E2000280886008701403FAA008B
:100E0E00413FAB000230A4002408A807AB1F182FE7
:100E1E000330A4002408AE04AA09AB09AA0A0319D8
:100E2E00AB0AB201B20A3208053A03193D2F320855
:100E3E00A400A501A435A50D003024078400883038
:100E4E00253D8500003FA600013FA70027082B0285
:100E5E00031D332F26082A02031C3D2F0130A40048
:100E6E002408B2073208053A031D1E2F30082F043E
:100E7E000319492F2E0803390319492FFF30AF07E5
:100E8E00FF30B03D3208A400A501A41BA503250820
:100E9E00803AA6003008803A2602031D582F2F08EC
:100EAE0024020318652F20003208A400A501A41BFC
:100EBE00A5032408AF022508B03B682F2000AF0120
:100ECE00B0012E1D8D2F2E0803390319792F2D30C9
:100EDE00A400310886008701240881000130A40097
:100EEE002408B10730082F040319B32F3030A400A3
:100EFE00310886008701240881000130A4002408EF
:100F0E00B107FF30AF07FF30B03D792F30082F0407
:100F1E000319A42F2030A40031088600870124086D
:100F2E0081000130A4002408B107FF30AF07FF3065
:100F3E00B03D30082F04031D912F2E0803390319DD
:100F4E00B32F2D30A40031088600870124088100BC
:100F5E000130A4002408B1073208A4002408A90017
:100F6E00FF30A4002408A9072908FF3A0319752E9B
:100F7E000A30F8000030F9002908A400A501A435B4
:100F8E00A50D0030240784008830253D8500003FE4
:100F9E00F000013FF1002B08F301F3072A08F201DC
:100FAE00F2078331652386317108FB01FB07700858
:100FBE00FA01FA078331022386317808303E200089
:100FCE00A6002608B2003208A40031088600870168
:100FDE00240881000130A4002408B107B72F200097
:100FEE00310886008701810108007E1020008531BE
:100FFE00AB2D013400340A34003464340034E83448
:10100E000334103427344D3465346334613474340E
:10101E0072346F346E346934633461340034433463
:10102E00753465346E347434613420342534303480
:10103E003334643400344734723461346334693485
:10104E006134733400345434683461346E346B3428
:06105E002034753400345B
:020000040001F9
:04000E00C4DFFFDD6F
:00000001FF
