:10000000803102288731FD2F7208710470040319B2
:1000100008008030F2060800F100F0013A30710269
:100020000318182830307102031C1828F001F00A58
:10003000700C0800730803192228720871047004F8
:10004000031D33280030F0000030F1000030F200D2
:1000500008000130F5007508F3070130F236F10CA5
:10006000F00C890B2E28FE30720503194C28292824
:100070000130F5007508F3070130F0070030031870
:100080000130F107003003180130F2070130F23679
:10009000F10CF00C890B4728FF3072050319592821
:1000A00038280130F3020130F035F10DF20D890BE3
:1000B0005428F11B5F28023073020318512873186B
:1000C0006728FF30F0057F30F105FF30F20503109F
:1000D000F30C7308F500F601F7011030F535F60D55
:1000E000F70D890B6E287508F0047608F10477087F
:1000F000F204740803190800F21708002100B70081
:100100005B302000DE005E082100A30020005A08BA
:10011000DF005908DE00D90A0319DA0A5E088400F4
:100120005F0885000008E00060082100B80038087A
:100130000319F82F253038060319AE283808200097
:10014000DE00210037088600870120005E0881005C
:100150000130DE005E082100B7078628B001B1013A
:10016000AE01AF01BA2821002E1501302000D907B9
:100170000030DA3D2000590884005A088500000844
:10018000303A0319B328C428590884005A08850056
:10019000000880310C208031031C0B292100B001A4
:1001A000B1010A302000A4000030A5002100310870
:1001B0002000A700210030082000A6009231A522CF
:1001C0008031200025082100B100200024082100F2
:1001D000B0002000590884005A0885000008D03E6D
:1001E000DE00FF3003180030DF005E082100B0079A
:1001F00020005F082100B13D01302000D907003008
:10020000DA3D590884005A088500000880310C2026
:1002100080310318D1282000590884005A0885002D
:1002200012002E3A031D562921002F1701302000FD
:10023000D9070030DA3D2100B501B6012000590888
:1002400084005A088500000880310C208031031C8E
:100250005D292000590884005A0885000008DE0046
:10026000DF01210036082000A5002100350820000C
:10027000A4000A30A6000030A7009231A5228031E8
:1002800020005E082407E0005F08253DE1006008CB
:10029000D03E2100B500FF302000613D2100B600B6
:1002A00001302000D9070030DA3D1E292100B501B8
:1002B000B6012F165D292F15792920005A08DF0075
:1002C0005908DE00D90A0319DA0A5E0884005F08BB
:1002D000850000082100B800003A0319F82F643A9D
:1002E00003197929023A03195B290F3A031979296D
:1002F000862800302E052000DE00073021002F0563
:100300002000DF005E085F040319372E21002F1E36
:100310008D290630B5000030B6002308860087011D
:10032000403FB200413FB300423FB40003302000E1
:10033000DE005E082100A3073208F0003308F10058
:100340003408F2000030F3000030F4000030F50013
:1003500093315C2380310318C22921003208F00058
:100360003308F1003408F200803104208031700835
:100370002100B2007108B3007208B4000330AE046B
:100380000030AF042100AC01AD0134083304320465
:100390000319822AB23086008701403F2000DE0028
:1003A000413FDF00423FE000433FE1000F30E136D4
:1003B000E00CDF0CDE0C890BD729FF305E05E20074
:1003C00000305F05E3006208823E2100AC00FF3090
:1003D0002000633D2100AD00FF30AC07FF30AD3D94
:1003E00003302000A4000030A50021002D082000CB
:1003F000A70021002C082000A6009231A522803100
:10040000200025082100AD00200024082100AC00B8
:100410000A30F7000030F8002D08FA002C08F90027
:1004200094317124803178082100AD007708AC0048
:10043000AD1F1E2AFF30AC07FF30AD3D2C03FF3A45
:100440008D31BC258031200038082100A400200017
:1004500039082100A50020003A082100A600320832
:100460002000A800210033082000A9002100340842
:100470002000AA00210024082000AB00210025084C
:100480002000AC00210026082000AD0097314C2749
:100490008031200028082100A40020002908210024
:1004A000A50020002A082100A6002408F000250845
:1004B000F1002608F2000030F3008030F4003F30F5
:1004C000F50093315C23803103186B2AFF30210043
:1004D000AC07FF30812A21002408F0002508F10034
:1004E0002608F2000030F3002030F4004130F5001F
:1004F00093315C238031031C822A01302100AC0738
:100500000030AD3D21003608803A2000DE0080300A
:100510005E02031D8E2A0D30210035020318B72A12
:10052000210035088C315724803120003808C6005E
:100530003908C7003A08C800210032082000C90065
:10054000210033082000CA00210034082000CB001D
:1005500089313F218031200046082100B20020006F
:1005600047082100B300200048082100B400210002
:100570002D08803A2000DE0080305E02031DC32A71
:100580000A3021002C020318EE2A2100340833041B
:1005900032040319362B32082000C1002100330831
:1005A0002000C200210034082000C300883102204E
:1005B000803120004408430442044104031D362BCB
:1005C00021002D08803A2000DE0080305E02031DED
:1005D000EC2A023021002C02031C362B21002408B7
:1005E000F0002508F1002608F2007030F300893091
:1005F000F4004030F50093315C2380310318022B66
:10060000F730032BF8302100AC07FF30AD3D2C084C
:100610008D31BC258031200038082100A400200045
:1006200039082100A50020003A082100A600320860
:10063000F0003308F1003408F2002408F300250824
:10064000F4002608F50088318920803173082100E4
:10065000AB007208AA007108A9007008A800003059
:10066000B2000030B3000030B400842B2100320807
:100670002000C100210033082000C20021003408FE
:100680002000C3008831022080312000440821006E
:10069000AB00200043082100AA00200042082100EE
:1006A000A900200041082100A8002B08FB002A080F
:1006B000FA002908F9002808F8009231FF22803159
:1006C00078082000D3007908D4007A08D5002100EA
:1006D00032082000D600210033082000D700210076
:1006E00034082000D8009231C12280312000530804
:1006F0002100B200200054082100B300200055085A
:100700002100B400AC01AD01B801B80A0A303806C6
:100710000319C12B38082000DE00DF01DE35DF0DB4
:10072000DE35DF0D00305E07840098305F3D8500C8
:10073000003FE000013FE100023FE200033FE30031
:10074000630821002B02031DB52B20006208210045
:100750002A02031DB52B2000610821002902031D78
:10076000B52B2000600821002802031CC12B01309A
:100770002000DE005E082100B8070A303806031D9D
:100780008A2B38082000DE00DF01DE1BDF0321009A
:10079000350820005E07E0002100360820005F3D9C
:1007A000E10021002C0820006007E20021002D0854
:1007B0002000613DE30062082100B00220006308D0
:1007C0002100B13B350836040319EA2BFF30B0078E
:1007D000FF30B13D03302E052000DE000030210047
:1007E0002F052000DF005E085F040319FC2BFF309B
:1007F0002100B007FF30B13D21002E1D4F2C0330EA
:100800002E052000DE00003021002F052000DF0033
:100810005E085F0403191A2C2D30DE002100370812
:100820008600870120005E0881000130DE005E083E
:100830002100B70721003108803A2000DE00803017
:100840005E02031D262C013021003002031C792C8E
:1008500030302000DE0021003708860087012000AC
:100860005E0881000130DE005E082100B707FF301E
:10087000B007FF30B13D1A2C20302000DE002100EF
:1008800037088600870120005E0881000130DE0005
:100890005E082100B707FF30B007FF30B13D2100EF
:1008A0003108803A2000DE0080305E02031D5B2CA0
:1008B00001302100300203183C2C033021002E05AA
:1008C0002000DE00003021002F052000DF005E0840
:1008D0005F040319792C2D30DE00210037088600D3
:1008E000870120005E0881000130DE005E082100E3
:1008F000B707FF302000DE005E082100B807380A85
:100900000319F02C38082000DE00DF01DE35DF0D92
:10091000DE35DF0D00305E07840098305F3D8500D6
:10092000003FF000013FF100023FF200033FF300FF
:1009300021002B08F7002A08F6002908F5002808EE
:10094000F40094311F24803173082100A70072083D
:10095000A6007108A5007008A40000302000A300C4
:100960000030A2000030A1000A30A00021002708BA
:100970002000A700210026082000A600210025084D
:100980002000A500210024082000A4009331972313
:100990008031200023082100A70020002208210028
:1009A000A600200021082100A50020002008210029
:1009B000A4002408303E20006C2C30302000DE00E3
:1009C000210037088600870120005E088100013081
:1009D000DE005E082100B707FF30AC07FF30AD3DF9
:1009E0002D08803A2000DE0080305E02031DFB2CC3
:1009F000013021002C020318DD2C21003608803A3A
:100A00002000DE0080305E02031D092D0930210028
:100A10003502031C0D2D08300F2D21003508200054
:100A2000DE005E082100B80038082000DE00DF018B
:100A3000DE1BDF035E082100B50220005F082100F5
:100A4000B63B38080319332D2E302000DE0021007C
:100A500037088600870120005E0881000130DE0033
:100A60005E082100B70738088D31BC258031200091
:100A700038082100A000200039082100A100200032
:100A80003A082100A20020082000AB002100210824
:100A90002000AC00210022082000AD002100320817
:100AA0002000A800210033082000A90021003408FC
:100AB0002000AA0097314C27803120002808C1006F
:100AC0002908C2002A08C300883102208031200092
:100AD00044082100AB00200043082100AA002000A8
:100AE00042082100A900200041082100A800FF3091
:100AF0002000DE005E082100B807380A0319322EF4
:100B000038082000DE00DF01DE35DF0DDE35DF0DC9
:100B100000305E07840098305F3D8500003FF000A4
:100B2000013FF100023FF200033FF30021002B08D8
:100B3000F7002A08F6002908F5002808F400943187
:100B40001F24803173082100A7007208A6007108D5
:100B5000A5007008A40000302000A3000030A2000F
:100B60000030A1000A30A000210027082000A700C3
:100B7000210026082000A600210025082000A5004D
:100B8000210024082000A400933197238031200005
:100B900023082100A700200022082100A600200031
:100BA00021082100A500200020082100A40024081D
:100BB000303E2000DE00210037088600870120003B
:100BC0005E0881000130DE005E082100B7073808AA
:100BD0002000DE00DF01DE35DF0DDE35DF0D003009
:100BE0005E07840098305F3D8500003FA000013F14
:100BF000A100023FA200033FA30021002B08200018
:100C0000A70021002A082000A600210029082000B2
:100C1000A500210028082000A400933197238031EB
:100C2000200023082100AB00200022082100AA0098
:100C3000200021082100A90020002008752D303057
:100C40002000DE00210037088600870120005E08B2
:100C500081000130DE005E082100B707FF30B507D4
:100C6000FF30B63D35083604031986281F2E2100B3
:100C7000230886008701403F2000DE00413FDF005F
:100C80005E082100A80020005F082100A900890D4E
:100C9000893B8909AA00AB0002302000DE005E0813
:100CA0002100A307AB1F632E0330AE040030AF0456
:100CB000A809A909AA09AB09A80A0319A90A0319CD
:100CC000AA0A0319AB0A35083604031D712E2B0836
:100CD0002A0429042804031D712E0130B5070030B1
:100CE000B63DB801B80A0A3038060319AE2E3808E6
:100CF0002000DE00DF01DE35DF0DDE35DF0D0030E8
:100D00005E07840098305F3D8500003FE000013FB2
:100D1000E100023FE200033FE300630821002B02F1
:100D2000031DA22E2000620821002A02031DA22E0C
:100D30002000610821002902031DA22E2000600866
:100D400021002802031CAE2E01302000DE005E08C8
:100D50002100B8070A303806031D772E3808200016
:100D6000DE00DF01DE1BDF035F08803AE0002100C8
:100D70003608803A20006002031DC22E210035088B
:100D800020005E020318CC2E210035082000DE0072
:100D90005E082100B800E82E210038082000DE009F
:100DA000DF01DE1BDF0321003608803A2000E0006F
:100DB0005F08803A6002031DE02E5E0821003502C4
:100DC0000318E82E21003808B500B601B51BB6039C
:100DD0002100300831040319FF2E03302E052000B6
:100DE000DE00003021002F052000DF005E085F04D8
:100DF0000319FF2EFF302100B007FF30B13D210065
:100E00002F1F1B2F3608803A2000DE0021003108FA
:100E1000803A20005E02031D102F210030083502A9
:100E20000318182F21003508B0023608B13B1B2FDC
:100E30002100B001B10138082000DE00DF01DE1B17
:100E4000DF035F08803AE00021003108803A20008B
:100E50006002031D2F2F2100300820005E020318BE
:100E6000402F210038082000DE00DF01DE1BDF03F9
:100E70005E082100B00220005F082100B13B432F33
:100E80002100B001B1012E1D792F03302E05200065
:100E9000DE00003021002F052000DF005E085F0427
:100EA0000319602F2D30DE002100370886008701EE
:100EB00020005E0881000130DE005E082100B707D7
:100EC0002100300831040319AF2F30302000DE003C
:100ED000210037088600870120005E08810001306C
:100EE000DE005E082100B707FF30B007FF30B13DDC
:100EF000612F300831040319942F20302000DE00C8
:100F0000210037088600870120005E08810001303B
:100F1000DE005E082100B707FF30B007FF30B13DAB
:100F200030083104031D7D2F03302E052000DE0024
:100F3000003021002F052000DF005E085F04031948
:100F4000AF2F2D30DE0021003708860087012000FA
:100F50005E0881000130DE005E082100B707FF3027
:100F60002100B507FF30B63D350A0319360A0319CB
:100F7000862800302000A3000030A2000030A1002D
:100F80000A30A00021003608850035088400843529
:100F9000850D8435850D003084079830853D003FF0
:100FA000F000013FF100023FF200033FF3002B0885
:100FB000F7002A08F6002908F5002808F400943103
:100FC0001F24803173082000A7007208A600710852
:100FD000A5007008A40093319723803120002008D9
:100FE000303EDE005E082100B80038082000A22F45
:100FF0003708860087018101080020008A31352AE0
:1010040020004108C5004208C6004308C700031079
:10101400460D470DC8004808CE004E08031D1B2886
:101024000030C4000030C3000030C2000030C100F2
:1010340008004108C5004208C6004308C70017302D
:10104400C736C60CC50C890B22284508C8004808B9
:10105400C900C217FF30C105FF30C2050030C30507
:101064004108CA004208CB004308CC00CD018E30B1
:10107400CE02CE1F59284E08803A8F3E03184B28C3
:101084000030C4000030C3000030C2000030C10092
:1010940008000130CD36CC0CCB0CCA0C890B4C2883
:1010A4000130C5004508CE07031972284B281830B3
:1010B4004E02031C6F280030C4000030C30000300F
:1010C400C2000030C10008000130CA35CB0DCC0D80
:1010D400CD0D890B67280130CE024E08031D66280A
:1010E400490803198028CA09CB09CC09CD09CA0AC1
:1010F4000319CB0A0319CC0A0319CD0A4D08C400FD
:101104004C08C3004B08C2004A08C100080070081C
:10111400F6007108F7007208F8000310770D780DD7
:10112400F90079082000A5002508031DA228003035
:10113400F3000030F2000030F1000030F00008004D
:101144007308F6007408F7007508F8000310770DAB
:10115400780DF9007908A4002408031DBA2800308A
:10116400F3000030F2000030F1000030F00008001D
:10117400F117FF30F005FF30F1050030F205F417E8
:10118400FF30F305FF30F4050030F5050030A3000F
:101194000030A2000030A1000030A0007F30A50282
:1011A40098302407F6007608A5021830F600760871
:1011B400A4000130A035A10DA20DA30D890BDC28DC
:1011C40075087202031DEC2874087102031DEC28D3
:1011D40073087002031CF5287308F0027408F13BCD
:1011E4007508F23B20140130F035F10DF20D890B36
:1011F400F6280130A402031DDB28A51F1D2925089C
:10120400803A973E03180F290030F3000030F200B3
:101214000030F1000030F00008000130A336A20CC9
:10122400A10CA00C890B10290130F6007608A50743
:10123400031936290F2918302502031C33290030DD
:10124400F3000030F2000030F1000030F00008003C
:101254000130A035A10DA20DA30D890B2B2901305E
:10126400A5022508031D2A292308F3002208F200F9
:101274002108F1002008F000080020004608CC00F6
:101284004708CD004808CE0003104D0D4E0DCF0089
:101294004F08D2004908CC004A08CD004B08CE00C4
:1012A40003104D0D4E0DCF004F08D1005208031905
:1012B40067295108520203186E295203FF3A510755
:1012C400CC0019304C02031C6E294908C6004A0898
:1012D400C7004B08C8000800510803190800520849
:1012E400510203187D295103FF3A5207CC001930EB
:1012F4004C02031808000630CC004C08D000C81B70
:10130400D017CB1B5017C717FF30C605FF30C705D2
:101314000030C805CA17FF30C905FF30CA050030C0
:10132400CB05510852020318B9290130C935CA0D39
:10133400CB0D890B98290130D102510852060319AB
:10134400B4290130D002500807390319B429972968
:101354000130C836C70CC60C890BAB290130CC0050
:101364004C08D207520851060319DE29AA2952084B
:1013740051020318DE290130C635C70DC80D890B8B
:10138400BE290130D202510852060319DA2901306C
:10139400D002500807390319DA29BD290130CB36A8
:1013A400CA0CC90C890BD1290130CC004C08D107D7
:1013B40052085106031DD029D01FF029FF30C6065C
:1013C400FF30C706FF30C8060130C60700300318D7
:1013D4000130C707003003180130C807501F022A24
:1013E400FF30C906FF30CA06FF30CB060130C907FB
:1013F400003003180130CA07003003180130CB074E
:10140400D0014608C9074708CA3D4808CB3DCB1F51
:101414001D2AFF30C906FF30CA06FF30CB06013053
:10142400C907003003180130CA070030031801301F
:10143400CB07D001D00A4908F0004A08F1004B0854
:10144400F2005208CC004C08F3005008CD004D08BF
:10145400F40080311A2070082000C6007108C7000B
:101464007208C80008002100CF01D001190887398B
:1014740070389900FC309905203023008C0020300E
:1014840021008C001D08833910389D001E11FC308A
:101494009E0570309E049E171D149631A2268A3133
:1014A40001309431C3248A310C309431C3248A31FD
:1014B40005302000E6000F30E500F430E400E40BD2
:1014C400612AE50B612AE60B612A21009D149D180F
:1014D400692A1C082000E400E50164082100CF000B
:1014E400200065082100D00050082000E5002100FC
:1014F4004F082000E4006408E500E40164082100CA
:10150400CF00200065082100D0001B084F072000F1
:10151400E400210050080318500A2000E500640884
:101524002100CF00200065082100D00000302000F9
:10153400B8008030B9004430BA000030A800A030B0
:10154400A9004030AA0021005008F9004F08F80013
:101554009231DF228A3178082000AB007908AC0090
:101564007A08AD0097314C278A3120002808BB0047
:101574002908BC002A08BD009531F9258A312000CC
:1015840038082100C900200039082100CA002000C1
:101594003A082100CB0082302000D9009830DA00CC
:1015A400210050082000DC0021004F082000DB004F
:1015B400B93080317E208A31F301F30AB93020003A
:1015C400E4006408F4000130933127238A310030A9
:1015D4002000A800C830A9004230AA002100490810
:1015E4002000AB0021004A082000AC0021004B0879
:1015F4002000AD0097314C278A31200028082100B3
:10160400CC00200029082100CD0020002A08210058
:10161400CE0076302000D9009830DA0021004C0842
:101624002000DB0021004D082000DC0021004E08D2
:101634002000DD00B93080317E208A31F301F30AC5
:10164400B9302000E4006408F40002309331272309
:101654008A310D302000E6002D30E500E230E40050
:10166400E40B322BE50B322BE60B322B0032672ACC
:10167400703086008701403FF600413FF700423F4B
:10168400F800433FF9000310780D790DFA007A0849
:101694002000A5002508031D582B0030F30000305E
:1016A400F2000030F1000030F000080073308600D2
:1016B4008701403FF600413FF700423FF800433FB7
:1016C400F9000310780D790DFA007A08A4002408B3
:1016D400031D752B0030F3000030F2000030F100E0
:1016E4000030F0000800703086008701003081046B
:1016F4004131003081044131803081044131003076
:101704008104703086008701FF3081054131FF304C
:1017140081054131FF30810541310030810573304D
:101724008600870100308104413100308104413159
:101734008030810441310030810473308600870198
:10174400FF3081054131FF3081054131FF30810592
:101754004131003081050030A3000030A200003088
:10176400A1000030A0007F30A502A0302407F600BD
:101774007608A5022030F6007608A4000130A035D2
:10178400A10DA20DA30D890BC12B73308600870117
:10179400403FF600413FF700423FF800433FF90065
:1017A400703086008701403FFA00413FFB00423F12
:1017B400FC00433FFD0079087D02031DEB2B7808F4
:1017C4007C02031DEB2B77087B02031DEB2B7608B1
:1017D4007A02031C082C733086008701403FF60010
:1017E400413FF700423FF800433FF9007030860064
:1017F40087017608810241317708813B41317808BD
:10180400813B41317908813B7D3120147030860061
:10181400870181354131810D4131810D4131810D86
:101824007D310130A402031DC02BA51F352C2508D2
:10183400803A9F3E0318272C0030F3000030F2005A
:101844000030F1000030F00008000130A336A20C93
:10185400A10CA00C890B282C0130F6007608A507F2
:1018640003194E2C272C20302502031C4B2C00304E
:10187400F3000030F2000030F1000030F000080006
:101884000130A035A10DA20DA30D890B432C01300D
:10189400A5022508031D422C2308F3002208F200A8
:1018A4002108F1002008F00008002000C5006E3077
:1018B4004502031C172D0A30F7000030F8004508D4
:1018C400BB00BC013B08F2003C08F3006430F000AC
:1018D4000030F1009331DA238C317108FA0070087A
:1018E400F900943171248C317708093E2000A4005A
:1018F4000030783DA5000330A6000030A7009231E7
:10190400A5228C3120002508850024088400283075
:1019140084079830853D003FA800013FA900023F9D
:10192400AA006430F7000030F8004508BD00BE018D
:101934003D08F9003E08FA00943171248C3177088F
:10194400123E2000A4000030783DA5000330A6001C
:101954000030A7009231A5228C3120002508850093
:1019640024088400283084079830853D003FAB006C
:10197400013FAC00023FAD0097314C278C31200071
:101984002808C2002908C3002A08C4004508BB006F
:10199400BC013B08F2003C08F3000A30F0000030C0
:1019A400F1009331DA238C3171082000A50070080E
:1019B400A4000330A6000030A7009231A5228C3188
:1019C40020002508850024088400283084079830E6
:1019D400853D003FA800013FA900023FAA0042083C
:1019E400AB004308AC004408AD0097314C278C3160
:1019F40020002808BF002908C0002A08C1000030C0
:101A0400A8000030A9003F30AA003F08AB004008FE
:101A1400AC004108AD0097314C2720002808B800DD
:101A24002908B9002A08BA0008000B304502031C33
:101A34008F2D4508BB00BC013B08F2003C08F300B5
:101A44000A30F0000030F1009331DA238C31710850
:101A54002000A5007008A4000330A6000030A700F1
:101A64009231A5228C3120002508850024088400A9
:101A7400283084079830853D003FA800013FA90025
:101A8400023FAA000A30F7000030F8004508BD0004
:101A9400BE013D08F9003E08FA00943171248C31EE
:101AA4007708093E2000A4000030783DA5000330EB
:101AB400A6000030A7009231A5228C312000250811
:101AC400850024088400283084079830853D003F31
:101AD400AB00013FAC00023FAD0097314C278C3185
:101AE40020002808C2002908C3002A08C4000030C6
:101AF400A8000030A9003F30AA004208AB00430808
:101B0400AC004408AD0097314C2720002808B800E9
:101B14002908B9002A08BA0008000030A8000030DB
:101B2400A9003F30AA004508BB00BC013B08A40043
:101B34003C08A5000330A6000030A7009231A5227E
:101B44008C3120002508850024088400283084076F
:101B54009830853D003FAB00013FAC00023FAD0033
:101B640097314C2720002808B8002908B9002A0812
:101B7400BA0008002000C000C01FE12EC009C00A3E
:101B84004008803A123E031C652E0A30F7000030EC
:101B9400F8004008F200F301F21BF3036430F00094
:101BA4000030F1009331DA238D317108FA007008A6
:101BB400F900943171248D317708093E2000A40086
:101BC4000030783DA5000330A6000030A700923114
:101BD400A5228D31200025088500240884002830A2
:101BE40084079830853D003FA800013FA900023FCB
:101BF400AA006430F7000030F8004008F900FA0148
:101C0400F91BFA03943171248D317708123E2000B8
:101C1400A4000030783DA5000330A6000030A700E2
:101C24009231A5228D3120002508850024088400E6
:101C3400283084079830853D003FAB00013FAC005D
:101C4400023FAD0097314C278D3120002808BD009C
:101C54002908BE002A08BF004008F200F301F21B65
:101C6400F3030A30F0000030F1009331DA238D31B0
:101C740071082000A5007008A4000330A6000030FD
:101C8400A7009231A5228D31200025088500240863
:101C94008400283084079830853D003FA800013F28
:101CA400A900023FAA003D08AB003E08AC003F0873
:101CB400AD0097314C2720002808B8002908B90046
:101CC4002A08BA0008004008803A753E031CC42E56
:101CD4004008F200F301F21BF3030A30F000003075
:101CE400F1009331DA238D3171082000A5007008CA
:101CF400A4000330A6000030A7009231A5228D3144
:101D040020002508850024088400283084079830A2
:101D1400853D003FA800013FA900023FAA000A3008
:101D2400F7000030F8004008F900FA01F91BFA0343
:101D3400943171248D317708093E2000A4000030CD
:101D4400783DA5000330A6000030A7009231A522FB
:101D54008D3120002508850024088400283084075C
:101D64009830853D003FAB00013FAC00023FAD0021
:101D740097314C2720002808B8002908B9002A0800
:101D8400BA0008004008BB00BC013B08A4003C08A2
:101D9400A5000330A6000030A7009231A522200040
:101DA4002508850024088400283084079830853D60
:101DB400003FB800013FB900023FBA0008004008E4
:101DC400803A123E031C842F0A30F7000030F800DA
:101DD4004008F200F301F21BF3036430F00000301A
:101DE400F1009331DA238D317108FA007008F9009B
:101DF400943171248D317708093E2000A40000300D
:101E0400783DA5000330A6000030A7009231A5223A
:101E14008D31200025088500240884004F30840774
:101E24009830853D003FA800013FA900023FAA0069
:101E34006430F7000030F8004008F900FA01F91B9B
:101E4400FA03943171248D317708123E2000A400E6
:101E54000030783DA5000330A6000030A700923181
:101E6400A5228D31200025088500240884004F30E8
:101E740084079830853D003FAB00013FAC00023F32
:101E8400AD0097314C278D3120002808BD0029086A
:101E9400BE002A08BF004008F200F301F21BF3035E
:101EA4000A30F0000030F1009331DA238D317108EB
:101EB4002000A5007008A4000330A6000030A7008D
:101EC4009231A5228D312000250885002408840044
:101ED4004F3084079830853D003FA800013FA9009A
:101EE400023FAA003D08AB003E08AC003F08AD002D
:101EF40097314C2720002808B8002908B9002A087F
:101F0400BA0008004008803A753E031CE32F4008DD
:101F1400F200F301F21BF3030A30F0000030F10089
:101F24009331DA238D3171082000A5007008A400D4
:101F34000330A6000030A7009231A5228D31200085
:101F440025088500240884004F3084079830853D97
:101F5400003FA800013FA900023FAA000A30F70091
:101F64000030F8004008F900FA01F91BFA03943133
:101F740071248D317708093E2000A4000030783D9B
:101F8400A5000330A6000030A7009231A5228D31B0
:101F9400200025088500240884004F3084079830E9
:101FA400853D003FAB00013FAC00023FAD009731DF
:101FB4004C2720002808B8002908B9002A08BA00CC
:101FC40008004008BB00BC013B08A4003C08A50075
:101FD4000330A6000030A7009231A5222000250876
:101FE4008500240884004F3084079830853D003FE5
:0C1FF400B800013FB900023FBA0008002D
:10254A00FC01FD012000241CAE2A2608FC072708EE
:10255A00FD3D0130A635A70D890BAF2A0130A536FE
:10256A00A40C890BB42A24082504031DA72A7D0874
:10257A00A5007C08A4000800200055085404530450
:10258A000319C92A8030D5065608C6005708C7005D
:10259A005808C8005308C9005408CA005508CB0097
:1025AA0089313F2120004608D3004708D400480853
:1025BA00D5000800FD01F91FE92AF809F909F80A06
:1025CA000319F90AFD01FD0A7808F0007908F100FB
:1025DA00F2018E30FB007B08F3007D08FC007C08CA
:1025EA00F40080311A207008F8007108F9007208A6
:1025FA00FA0008008E30FC007C08FD00FF307B05E5
:10260A000319132B0130FB36FA0CF90CF80C890B61
:10261A00082B0130FC007C08FD07032B7808F0002A
:10262A007908F1007A08F2007D08FC007C08F300C2
:10263A00F40180311A207008F8007108F900720854
:10264A00FA000800F600382B7308803E342B730812
:10265A00C03E342B7308943E342B7308D43EF500E5
:10266A007508F700462B7608013A0319292B033A15
:10267A0003192C2B013A03192F2B073A0319322B72
:10268A00462B77089431C324933174088600870156
:10269A0001080319080074088600870101089531AA
:1026AA005C2593310130F5007508F4074A2BF21FB7
:1026BA00722B7009F6007109F7007209F800F60A20
:1026CA000319F70A0319F80A00307607F0000030F8
:1026DA00773DF1008030783DF200F51F882B7309B1
:1026EA00F6007409F7007509F800F60A0319F70AE3
:1026FA000319F80A00307607F3000030773DF4003A
:10270A008030783DF5008030F2068030F506750895
:10271A007202031D080074087102031D0800730881
:10272A00700208002000230822042104200403194F
:10273A00D12BA901A90AA31BAE2B0130A035A10DEB
:10274A00A20DA30D890BA32B0130A8002808A90705
:10275A00A02B23082702031DBC2B22082602031DD7
:10276A00BC2B21082502031DBC2B20082402031CB4
:10277A00C62B2008A4022108A53B2208A63B230851
:10278A00A73B0130A336A20CA10CA00C890BC72BC6
:10279A000130A902031DAE2B2708A3002608A200B8
:1027AA002508A1002408A0000800F601F31FE42B65
:1027BA00F209F309F20A0319F30AF601F60AF11FFC
:1027CA00EB2BF009F109F00A0319F10A70087104F8
:1027DA000319122CF501F50AF11BFD2B0130F03516
:1027EA00F10D890BF42B0130F4007408F507F12B75
:1027FA0071087302031D032C70087202031C092C52
:10280A007008F2027108F33B0130F136F00C890BC3
:10281A000A2C0130F502031DFD2B760803191A2C28
:10282A00F209F309F20A0319F30A7308F1007208AC
:10283A00F00008000030FC000030FB000030FA0015
:10284A000030F90073087204710470040319682CCB
:10285A00FD01FD0AF31B3D2C0130F035F10DF20D9F
:10286A00F30D890B322C0130F8007808FD072F2C64
:10287A000130F935FA0DFB0DFC0D890B3E2C73085E
:10288A007702031D522C72087602031D522C71081E
:10289A007502031D522C70087402031C5D2C70080B
:1028AA00F4027108F53B7208F63B7308F73B79149A
:1028BA000130F336F20CF10CF00C890B5E2C01306E
:1028CA00FD02031D3D2C7C08F3007B08F2007A0808
:1028DA00F1007908F00008002000A101F81F7C2C03
:1028EA00F709F809F70A0319F80AA101A10AFA1F58
:1028FA00872CF909FA09F90A0319FA0A0130FB00C7
:10290A007B08A106A201A301770878040319B62C53
:10291A00A001A00AF81B9B2C0130F735F80D890B92
:10292A00922C0130FB007B08A0078F2C0130A235C6
:10293A00A30D890B9C2C78087A02031DA62C770814
:10294A007902031CAD2C7708F9027808FA3B2214A5
:10295A000130F836F70C890BAE2C0130A002031DAA
:10296A009B2C21080319BE2CA209A309A20A031948
:10297A00A30A2308F8002208F7000800F200200042
:10298A008E100E107208F0000730F036890BCA2C30
:10299A0070080139F100F10EF10D0E087106DF39E8
:1029AA0071068E007208F0000630F036890BDA2CB8
:1029BA0070080139F100F10E0E087106EF3971063F
:1029CA008E007208F0000530F036890BE92C700889
:1029DA000139F100F10DF10DF10D0E087106F7390B
:1029EA0071068E007208F0000430F036890BFA2C5A
:1029FA0070080139F100F10DF10D0E087106FB396D
:102A0A0071068E000330F000F00B092D20008E14A1
:102A1A000D30F000F00B0F2D20008E107208F00020
:102A2A000330F036890B162D70080139F100F10ECA
:102A3A00F10D0E087106DF3971068E007208F0007A
:102A4A000230F036890B262D70080139F100F10E9B
:102A5A000E087106EF3971068E0072360139F000E0
:102A6A00F00DF00DF00D0E087006F73970068E00A5
:102A7A0072080139F000F00DF00D0E087006FB39EE
:102A8A0070068E000330F000F00B492D20008E14E2
:102A9A000D30F000F00B4F2D20008E103A30F1006F
:102AAA002330F000F00B572DF10B572D0800F200E0
:102ABA0020008E100E147208F0000730F036890BD1
:102ACA00632D70080139F100F10EF10D0E0871063F
:102ADA00DF3971068E007208F0000630F036890B75
:102AEA00732D70080139F100F10E0E087106EF39E5
:102AFA0071068E007208F0000530F036890B822DBF
:102B0A0070080139F100F10DF10DF10D0E08710691
:102B1A00F73971068E007208F0000430F036890B1E
:102B2A00932D70080139F100F10DF10D0E087106AF
:102B3A00FB3971068E000330F000F00BA22D200045
:102B4A008E140D30F000F00BA82D20008E107208A4
:102B5A00F0000330F036890BAF2D70080139F1000F
:102B6A00F10EF10D0E087106DF3971068E0072083A
:102B7A00F0000230F036890BBF2D70080139F100E0
:102B8A00F10E0E087106EF3971068E0072360139A0
:102B9A00F000F00DF00DF00D0E087006F739700612
:102BAA008E0072080139F000F00DF00D0E08700663
:102BBA00FB3970068E000330F000F00BE22D200086
:102BCA008E140D30F000F00BE82D20008E100D3021
:102BDA00F000F00BEE2D3A30F1002330F000F00B4C
:102BEA00F42DF10BF42D080020003B08BE003C0830
:102BFA00BF003D08C00003103F0D400DC100410851
:102C0A00C6004608031D102E0030B8000030B90077
:102C1A000030BA0008003808BE003908BF003A0878
:102C2A00C00003103F0D400DC1004108C70047080E
:102C3A00031D262E0030B8000030B9000030BA005B
:102C4A0008000030C3000030C4000030C5008930DD
:102C5A004707BE003E08C6023B08BE003C08BF004C
:102C6A003D08C0001030C036BF0CBE0C890B382E90
:102C7A003E08C1004108C7003808BE003908BF0035
:102C8A003A08C0001030C036BF0CBE0C890B482E63
:102C9A003E08C1004108C7068030BE003E08C7058D
:102CAA00BC17FF30BB05FF30BC050030BD05B917A6
:102CBA00FF30B805FF30B9050030BA051830BE003C
:102CCA003E08C2000130C335C40DC50D890B682EFC
:102CDA003A083D02031D772E39083C02031D772E60
:102CEA0038083B02031C802E3808BB023908BC3B5B
:102CFA003A08BD3B43140130BB35BC0DBD0D890BF1
:102D0A00812E0130C202031D672E4308F0004408D9
:102D1A00F1004508F2004608BE003E08F3004708E5
:102D2A00BF003F08F40080311A2070082000B80064
:102D3A007108B9007208BA00080021008E120E123A
:102D4A008E110E118E100E1020008E120E128E1180
:102D5A000E118E100E103A30F4002330F300F30BEC
:102D6A00B42EF40BB42E3A30F4002330F300F30BF4
:102D7A00BC2EF40BBC2E3A30F4002330F300F30BD4
:102D8A00C42EF40BC42E3A30F4002330F300F30BB4
:102D9A00CC2EF40BCC2E3A30F4002330F300F30B94
:102DAA00D42EF40BD42E3A30F4002330F300F30B74
:102DBA00DC2EF40BDC2EF501F50A0430750203183B
:102DCA000E2F20008E120E128E150E158E100E105A
:102DDA008E120E128E150E158E140E100D30F30073
:102DEA00F30BF52E20008E120E128E150E158E1074
:102DFA000E103A30F4002330F300F30B022FF40BD9
:102E0A00022F0130F3007308F50704307502031C22
:102E1A00E62E20008E120E128E150E118E100E1036
:102E2A008E120E128E150E118E140E100D30F30026
:102E3A00F30B1D2F20008E120E128E150E118E10FE
:102E4A000E103A30F4002330F300F30B2A2FF40B60
:102E5A002A2F2830F3007308F50075089431C3242B
:102E6A0096311030F3007308F50075089431C324C5
:102E7A009631F501F50A75089431C32496310F305D
:102E8A00F3007308F50075089431C3240800200084
:102E9A002808AE002908AF002A08B00003102F0D39
:102EAA00300DB1003108B2003208031D632F003023
:102EBA00A8000030A9000030AA0008002B08AE00C4
:102ECA002C08AF002D08B00003102F0D300DB100F3
:102EDA003108B7003708031D792F0030A8000030E9
:102EEA00A9000030AA00080037087B3EAE002E0871
:102EFA00B2072808AE002908AF002A08B00010302F
:102F0A00B036AF0CAE0C890B852F2E08B1003108F4
:102F1A00B7002B08AE002C08AF002D08B000103007
:102F2A00B036AF0CAE0C890B952F2E08B1003108C4
:102F3A00B7068030AE002E08B705A917AC17FF30C8
:102F4A00AB05FF30AC050030AD050030B3000030F2
:102F5A00B4000030B5000730AE002E08B600281CB9
:102F6A00BC2F2B08B3072C08B43D2D08B53D013002
:102F7A00AA36A90CA80C890BBD2F0130AB35AC0DB4
:102F8A00AD0D890BC32F0130B602031DB42F0930D2
:102F9A00AE002E08B600281CD82F2B08B3072C0821
:102FAA00B43D2D08B53D0130AA36A90CA80C890BF1
:102FBA00D92F0130B536B40CB30C890BDF2F013091
:102FCA00B602031DD02F3308F0003408F10035088B
:102FDA00F2003208AE002E08F3003708AF002F08BF
:102FEA00F40080311A2070082000A8007108A90096
:102FFA007208AA00080001340034003400340A348C
:10300A000034003400346434003400340034E834CA
:10301A000334003400341034273400340034A0342C
:10302A00863401340034403442340F34003480345E
:10303A009634983400340034E134F53405340034DD
:10304A00CA349A343B34003480343F34CD34CC34DF
:10305A003D34D73423343C34123483343A34B734CD
:10306A00D1343834C6342734373438348634353496
:10307A00C034D6343334CC342B34323470348934BB
:10308A003034E734DB342E34E5343C341E344234F5
:10309A00A2340D34003480343F34003420344134B7
:1030AA000034C834423400347A34443440341C3452
:1030BA0046345034C334473424347434493497344E
:1030CA0018344B34BC34BE344C346B346E344E3406
:1030DA000334153450347934AD346034F33449341C
:1030EA007134543465346D347034203425343034BA
:1030FA0034342E3432346634003441344434433464
:0C310A0020342534303434346434003474
:020000040001F9
:04000E00C4FFFFFF2D
:00000001FF
