:08000000803102288731FC2F3A
:100F480021001908873970389900FC309905FF305D
:100F58008E0020008E0125001308F0390C3893000C
:100F68003F309305FF3020009B001C08FC390238F5
:100F78009C0087309C051C15FF30250091003030FF
:100F88009304FC309E0521008E01F301F4017408DE
:100F9800803AF00084307002031DD42F00307302B1
:100FA8000318C92F7408F1007308F000710DF10CD3
:100FB800F00C710DF10CF00C70082500910073080D
:100FC800F000F00E13087006CF3970069300053054
:100FD800F2000F30F100F430F000F00BF12FF10BBC
:100FE800F12FF20BF12F0130F3070030F43DCB2F36
:080FF8007E1020008731A42FB8
:020000040001F9
:04000E00C4FFFFFF2D
:00000001FF
