:0400000080311B2808
:100008007E14803120007F08F10023001908F000D9
:100018007008F2007208413A031D152801302200C9
:100028008C06200091127108FF007E1009008031B3
:100038001D287E10200080312128210019088739C9
:1000480070389900FC3099058C0120008C01230040
:100058008C01803021008E0020008E018B170B1739
:1000680091122100911623009D171D161E129F1133
:080078001E1133309B003F28EC
:020000040001F9
:04000E00C4FFFFFF2D
:00000001FF
