:08000000803102288731FC2F3A
:1009B200F600EA2C7308803EE62C7308C03EE62C53
:1009C2007308943EE62C7308D43EF5007508F700D0
:1009D200F82C7608013A0319DB2C033A0319DE2CB2
:1009E200013A0319E12C073A0319E42CF82C770891
:1009F20085315B25843174088600870181080319DB
:100A0200080074088600870101088531F4258431C5
:100A12000130F5007508F407FC2CFA007230F4007E
:100A22007408F8002A2D7808860087010108F4006E
:100A32007408F9000230F4007408F8077908F40029
:100A42007A0886008701740881000130F400740876
:100A5200FA077108F5007008F400F00A0319F10AA8
:100A620074088400750885000008F6007608F9000D
:100A7200F9080319562D7908253A031D1F2DF70190
:100A82007108F5007008F400F00A0319F10A7408FD
:100A92008400750885000008F900003A0319562DF4
:100AA200633A0319142D1F2D2A2D7A088600870117
:100AB20081010800F2002000101190107208F0006D
:100AC2000730F036890B622D70080139F100F10C04
:100AD200F10C0F0871067F3971068F007208F00061
:100AE2000630F036890B722D70080139F100F10ED3
:100AF200F10DF10D0F087106BF3971068F007208F2
:100B0200F0000530F036890B832D70080139F100B1
:100B1200F10EF10D0F087106DF3971068F007208B0
:100B2200F0000430F036890B932D70080139F10082
:100B3200F10E0F087106EF3971068F000330F000D5
:100B4200F00BA12D200010150D30F000F00BA72D99
:100B5200200010117208F0000330F036890BAE2D20
:100B620070080139F100F10CF10C0F0871067F39A0
:100B720071068F007208F0000230F036890BBE2D2C
:100B820070080139F100F10EF10DF10D0F08710637
:100B9200BF3971068F0072360139F000F00EF00D88
:100BA2000F087006DF3970068F0072080139F000F5
:100BB200F00E0F087006EF3970068F000330F00058
:100BC200F00BE12D200010150D30F000F00BE72D99
:100BD200200010113A30F1002330F000F00BEF2D1D
:100BE200F10BEF2D0800F200200010119014720892
:100BF200F0000730F036890BFB2D70080139F10047
:100C0200F10CF10C0F0871067F3971068F00720822
:100C1200F0000630F036890B0B2E70080139F10016
:100C2200F10EF10DF10D0F087106BF3971068F003B
:100C32007208F0000530F036890B1C2E700801395D
:100C4200F100F10EF10D0F087106DF3971068F0008
:100C52007208F0000430F036890B2C2E700801392E
:100C6200F100F10E0F087106EF3971068F000330A3
:100C7200F000F00B3A2E200010150D30F000F00BB2
:100C8200402E200010117208F0000330F036890B5C
:100C9200472E70080139F100F10CF10C0F087106B2
:100CA2007F3971068F007208F0000230F036890B2E
:100CB200572E70080139F100F10EF10DF10D0F08F8
:100CC2007106BF3971068F0072360139F000F00EDD
:100CD200F00D0F087006DF3970068F0072080139B7
:100CE200F000F00E0F087006EF3970068F00033027
:100CF200F000F00B7A2E200010150D30F000F00BF2
:100D0200802E200010110D30F000F00B862E3A30AC
:100D1200F1002330F000F00B8C2EF10B8C2E08002A
:100D220021008F130F138F120F1210119010200039
:100D32008F130F138F120F12101190103A30F4000C
:100D42002330F300F30BA32EF40BA32E3A30F4005E
:100D52002330F300F30BAB2EF40BAB2E3A30F4003E
:100D62002330F300F30BB32EF40BB32E3A30F4001E
:100D72002330F300F30BBB2EF40BBB2E3A30F400FE
:100D82002330F300F30BC32EF40BC32E3A30F400DE
:100D92002330F300F30BCB2EF40BCB2EF501F50A27
:100DA200043075020318FD2E20008F130F138F16C7
:100DB2000F16101190108F130F138F160F16101598
:100DC20090100D30F300F30BE42E20008F130F135D
:100DD2008F160F16101190103A30F4002330F300E2
:100DE200F30BF12EF40BF12E0130F3007308F5072B
:100DF20004307502031CD52E20008F130F138F169B
:100E02000F12101190108F130F138F160F1210154F
:100E120090100D30F300F30B0C2F20008F130F13E3
:100E22008F160F12101190103A30F4002330F30095
:100E3200F30B192FF40B192F2830F3007308F50068
:100E4200750885315B2586311030F3007308F50093
:100E5200750885315B258631F501F50A75088531FE
:100E62005B2586310F30F3007308F5007508853174
:100E72005B250800210099171908873970389900F5
:100E8200FC30990523008C018D0190018F01210016
:100E92008C018D018F0190018631912687310130BD
:100EA20085315B2587310C3085315B2587310530F3
:100EB200FD000F30FC00F430FB00FB0B5E2FFC0B3F
:100EC2005E2FFD0B5E2F013020008C00732F373018
:100ED2006F2F38306F2F39306F2F2F30FB007B0888
:100EE200B400812F0D08013A0319682F033A031940
:100EF2006A2F063A03196C2F0C3A03196E2F812FB1
:100F020002308C008F2F34308B2F35308B2F3630C0
:100F12008B2F7830FB007B08B4009D2F0D08013A1F
:100F22000319842F033A0319862F063A0319882FCF
:100F32000C3A03198A2F9D2F04308C00AB2F3130CD
:100F4200A72F3230A72F3330A72F2D30FB007B087D
:100F5200B400B92F0D08013A0319A02F033A03195F
:100F6200A22F063A0319A42F0C3A0319A62FB92F60
:100F720008308C00C72F3130C32F3030C32F3D30A3
:100F8200C32F2B30FB007B08B400D52F0D08013A8C
:100F92000319BC2F033A0319BE2F063A0319C02FB7
:100FA2000C3A0319C22FD52F0030F0008830F1001F
:100FB2003408FB00FC017B08F2007C08F3002030BF
:100FC20085310E258731F301F30A2030FB007B08BF
:100FD200F40001308431D92487310D30FD002D30E9
:100FE200FC00E230FB00FB0BF42FFC0BF42FFD0B9B
:100FF200F42F0032642F7E10200087313B2F5434AF
:10100200653463346C346134203425346334003401
:020000040001F9
:04000E00C4C9FFDD85
:00000001FF
