:0400000080312628FD
:100008007E14803120007F08F30022000C0801399B
:10001800013EF0000C087006FE3970068C000D30A9
:10002800F2002D30F100E230F000F00B1928F10B4E
:100038001928F20B192800328B1073082000FF00D2
:100048007E100900803128287E10200080312C285D
:1000580021001908873970389900FC3099058C01FE
:10006800FF308D0020008C018D01210095132400A4
:0E0078000D148B178B100B1621001517422844
:020000040001F9
:04000E00C4FFFFFF2D
:00000001FF
