:0400000080311F2804
:100008007E14803120007F08F2000130F0070030B4
:10001800F13D643070067104031D17280130220079
:100028008C06F001F1018330200095000B11720855
:10003800FF007E10090080312128F001F1017E10B7
:100048002000803127282100190887397038990045
:10005800FC3099058C0120008C018B178B160B1135
:1000680021009512151295111508F83905389500D3
:080078008330200095003F28B1
:020000040001F9
:04000E00C4FFFFFF2D
:00000001FF
