:0400000080313228F1
:100008007E14803120007F08F3002700161C172873
:10001800003022000C180130013EF0000C08700678
:10002800FE3970068C002700161E1D28023022009B
:100038008C060D30F2002D30F100E230F000F00BAC
:100048002328F10B2328F20B2328003227009601DE
:100058000B1073082000FF007E100900803134283F
:100068007E1020008031382821001908873970381F
:100078009900FC3099058C0123008C018D01FF301B
:1000880021008D0020008C0121009513FF302400F1
:100098008D000D140D168B170B108B1527001514DA
:0600A80014169601562813
:020000040001F9
:04000E00C4FFFFFF2D
:00000001FF
